:100000000C9457000C9474000C9474000C947400BD
:100010000C9474000C9474000C9474000C94740090
:100020000C9474000C9474000C9474000C94740080
:100030000C9474000C9474000C9474000C94740070
:100040000C9404060C9474000C9474000C947400CA
:100050000C9474000C9474000C9474000C94740050
:100060000C944E060C94740000000000250028003B
:100070002B00040404040404040402020202020229
:10008000030303030303010204081020408001025C
:1000900004081020010204081020000000080002DB
:1000A000010000030407000000000000000011240C
:1000B0001FBECFEFD8E0DEBFCDBF11E0A0E0B1E0C2
:1000C000E0EBF0E102C005900D92AC33B107D9F737
:1000D00023E0ACE3B1E001C01D92A23CB207E1F71E
:1000E0000E946A070C9456080C94000090E0FC01F2
:1000F000E656FF4F2491FC01EA57FF4F3491FC0173
:10010000EE58FF4FE491EE23C9F0222339F023305B
:1001100001F1A8F4213019F1223029F1F0E0EE0FBD
:10012000FF1FE859FF4FA591B4918FB7F894EC9158
:10013000611126C030953E233C938FBF0895273030
:10014000A9F02830C9F0243049F7809180008F7DD4
:1001500003C0809180008F7780938000DFCF84B5CB
:100160008F7784BDDBCF84B58F7DFBCF8091B000CE
:100170008F778093B000D2CF8091B0008F7DF9CF80
:100180003E2BDACF3FB7F894809111039091120380
:10019000A0911303B091140326B5A89B05C02F3F6F
:1001A00019F00196A11DB11D3FBFBA2FA92F982F9D
:1001B0008827BC01CD01620F711D811D911D42E098
:1001C000660F771F881F991F4A95D1F708958F9260
:1001D0009F92AF92BF92CF92DF92EF92FF924B012C
:1001E0005C010E94C2006B017C010E94C2006C197C
:1001F0007D098E099F09683E734081059105A8F32A
:1002000021E0821A9108A108B10888EEC80E83E0A7
:10021000D81EE11CF11C81149104A104B10429F73A
:10022000FF90EF90DF90CF90BF90AF909F908F9016
:1002300008951F93CF93DF93C1E0C093CC0288232E
:1002400099F1D091B8001091BA008091BC008A7BDE
:100250008093BC0060E082E10E94760060E083E170
:100260000E94760010928503C093640310925F038E
:1002700061E082E10E94760061E083E10E94760005
:100280008091B9008E7F8093B9008091B9008D7FF5
:100290008093B90088E48093B80085E48093BC0023
:1002A0001093BA00D093B800DF91CF911F910895B9
:1002B000CF92DF92EF92FF920F931F93CF93DF9332
:1002C000D82FC62F613208F098C00E94C2006B017F
:1002D0007C018091850381116BC081E0809385034F
:1002E000809364039FEF90936303109262039C0FCB
:1002F000909361038093600380916003DD0FD82B9E
:10030000D093600380915F03813009F078C0109230
:100310005F030E94C2006B017C01809160038093A7
:10032000BB008091870390918803A0918903B091CD
:100330008A03892B8A2B8B2BA1F00E94C20000918B
:100340008703109188032091890330918A036C19E7
:100350007D098E099F09061717072807390708F432
:1003600048C08091BC0083FDD8CF85EC8093BC0051
:100370000E94C2006B017C0180918503813009F4E9
:1003800040C0809162038C1710F4C0916203EFE3C8
:10039000F3E0A5E6B3E080E08C1355C08C2FDF912D
:1003A000CF911F910F91FF90EF90DF90CF90089524
:1003B0008091870390918803A0918903B0918A036B
:1003C000892B8A2B8B2B09F484CF0E94C2000091C9
:1003D0008703109188032091890330918A036C1957
:1003E0007D098E099F09061717072807390708F0A6
:1003F00070CF809186030E941901C0E0CFCF85EEB7
:10040000B5CF8091870390918803A0918903B09123
:100410008A03892B8A2B8B2B09F4AECF0E94C20052
:1004200000918703109188032091890330918A03FA
:100430006C197D098E099F090617170728073907C8
:1004400008F09ACFD6CF91919D938F5FA5CF8F92D1
:100450009F92AF92BF92CF92DF92EF92FF920F9353
:100460001F93CF93DF93D0913E03D13208F0D7C0D2
:10047000182FC0913D030E94C2006B017C01809146
:10048000850381116BC082E0809385031093640320
:100490008FEF8093630310926203D0936103ADE109
:1004A000B3E0EFE3F3E080E0D81391C01092600373
:1004B00080916003CC0FC82BC093600380915F03D1
:1004C000813009F088C010925F030E94C2006B0166
:1004D0007C01809160038093BB00809187039091A1
:1004E0008803A0918903B0918A03892B8A2B8B2BD7
:1004F000A1F00E94C200009187031091880320910F
:10050000890330918A036C197D098E099F090617AA
:1005100017072807390708F442C08091BC0083FD03
:10052000D8CF85EC8093BC000E94C2006B017C0197
:1005300080918503823009F450C0809163038F3F1E
:1005400009F46FC080916303803209F46CC080911C
:100550006303803309F469C084E026C08091870377
:1005600090918803A0918903B0918A03892B8A2BEB
:100570008B2B09F484CF0E94C20080908703909057
:100580008803A0908903B0908A036C197D098E09B5
:100590009F0986169706A806B90608F070CF8091C5
:1005A00086030E94190185E010921C0310923E03FD
:1005B00010921B03DF91CF911F910F91FF90EF904D
:1005C000DF90CF90BF90AF909F908F9008959D91B6
:1005D00091938F5F69CF85EEA5CF8091870390912E
:1005E0008803A0918903B0918A03892B8A2B8B2BD6
:1005F00009F49ECF0E94C2000091870310918803E6
:100600002091890330918A036C197D098E099F0915
:10061000061717072807390708F08ACFC0CF81E0EF
:10062000C3CF80E0C1CF82E0BFCF83E0BDCF2091B8
:10063000ED02260F3327331F21323105ECF42091D0
:100640008503FC0190E080E0243069F082E00895A9
:10065000A091ED022191AC0143535D4FA40FB52F42
:10066000B11D2C930196861798F38091ED02680FC7
:100670006093ED0280E0089581E008950895E0918F
:100680001A0380911903E81730F4F0E0EB59FC4F9E
:10069000808190E008958FEF9FEF089590911A0365
:1006A000809119032FEF3FEF981748F4E92FF0E0FE
:1006B000EB59FC4F208130E09F5F90931A03C901F2
:1006C00008958091190390911A03891B990B08953D
:1006D000CF92DF92EF92FF920F931F93CF93DF930E
:1006E0007C01CB018A0120911B03222389F0EB01BD
:1006F0006B01C40ED51ECC15DD0569F06991D701DB
:10070000ED91FC910190F081E02DC7010995F3CFA7
:10071000642F0E941703C801DF91CF911F910F91A1
:10072000FF90EF90DF90CF900895CF93DF931F92CB
:10073000CDB7DEB7698320911B032223F9F0209106
:100740003E03203258F021E030E0FC013383228365
:1007500090E080E00F90DF91CF91089580911C038D
:10076000E82FF0E0E35EFC4F998190838F5F8093E8
:100770001C0380933E0381E090E0ECCF61E0CE016A
:1007800001960E941703F7CF90E080E00895CF9381
:10079000C82F80918B0390918C0321E020931B0341
:1007A000C0933D0310921C0310923E03DC01ED91B7
:1007B000FC910190F081E02D099580E00E942702D4
:1007C00061E08C2F0E94580110921A038093190344
:1007D00080918B0390918C03DC01ED91FC9100845E
:1007E000F185E02D0995892B69F080918B0390911B
:1007F0008C03DC01ED91FC910284F385E02D0995D9
:10080000CF91089580E0FCCF7F928F929F92AF921C
:10081000BF92CF92DF92EF92FF920F931F93CF93ED
:10082000DF9366E080918D030E94C703D82F64E0B8
:1008300080918D030E94C7038D1709F404C1282FEE
:100840002D1B330BE90137FDA09620918E032C9FC1
:10085000C0012D9F900D11248C01000F111F080F56
:10086000191F80918B0390918C0321E020931B032F
:1008700027E520933D0310921C0310923E03DC01F8
:10088000ED91FC910190F081E02D67E0099581E008
:100890000E94270233E0732E40E2C42ED12C1016A2
:1008A00011060CF0D2C07801013211055CF06091A4
:1008B0008E03679DB0011124C6010E942E087601A7
:1008C000E81AF90A0E191F096E2D87E50E945801D2
:1008D00010921A03809319031E141F0404F78091C9
:1008E000C0038F5F83708093C003B12C80918B0312
:1008F00090918C03DC01ED91FC910284F385E02D55
:100900000995A82E80918B0390918C03DC01ED91C9
:10091000FC910284F385E02D0995982E80918B033C
:1009200090918C03DC01ED91FC910284F385E02D24
:100930000995882EE091C003B4E0EB9FF0011124EB
:10094000E557FC4FD501C401A370BB27858396836F
:10095000A783B08780918E038230A0F180918B03B2
:1009600090918C03DC01ED91FC910284F385E02DE4
:100970000995A82E80918B0390918C03DC01ED9159
:10098000FC910284F385E02D0995982E80918B03CC
:1009900090918C03DC01ED91FC910284F385E02DB4
:1009A0000995882EE091C003B4E0EB9FF00111247B
:1009B000E556FC4FD501C401A370BB278583968300
:1009C000A783B08780918E038330A0F180918B0341
:1009D00090918C03DC01ED91FC910284F385E02D74
:1009E0000995A82E80918B0390918C03DC01ED91E9
:1009F000FC910284F385E02D0995982E80918B035C
:100A000090918C03DC01ED91FC910284F385E02D43
:100A10000995882EE091C003B4E0EB9FF00111240A
:100A2000E555FC4FD501C401A370BB278583968390
:100A3000A783B08720918E034DEF420390011124CC
:100A4000E20EF31E49CFD0E0C0E0CE01DF91CF919E
:100A50001F910F91FF90EF90DF90CF90BF90AF90DC
:100A60009F908F907F900895CF92DF92EF92FF92A8
:100A70008FB7F894C0901503D0901603E090170339
:100A8000F09018038FBF2FB7F894809115039091C1
:100A90001603A0911703B09118032FBF8C199D095D
:100AA000AE09BF098B3F9105A105B10558F40E941D
:100AB0000404019769F061E070E080E090E00E943A
:100AC000E700E1CF80E0FF90EF90DF90CF900895B6
:100AD00081E0F9CF9BB19F70282F207F922B9BB98B
:100AE0005A985B9A4AE04A95F1F700C05B98EFE1AB
:100AF000F3E03197F1F700C000009BB19F70F0E187
:100B00008F9F90011124892F822B8BB95B9A4AE029
:100B10004A95F1F700C05B988FE39FE10197F1F7E9
:100B200000C00000089581E00E946A058FE39FE104
:100B30000197F1F700C0000080E80C946A05FC0101
:100B40002191222341F19BB19F70822F807F982BAE
:100B50009BB95A9A5B9A85E08A95F1F700005B98F9
:100B60008FE193E00197F1F700C000009BB19F7007
:100B700080E1289F90011124922B9BB95B9A95E00C
:100B80009A95F1F700005B988FE39FE10197F1F7E9
:100B900000C00000D5CF089585ED8093BC00809102
:100BA000870390918803A0918903B0918A030796E7
:100BB000A11DB11D23E0B695A795979587952A9518
:100BC000D1F72091BC0024FD03C010928503089545
:100BD00040918703509188036091890370918A0343
:100BE000452B462B472B69F30097A105B10541F032
:100BF00025E32A95F1F700000197A109B109E1CF9A
:100C0000809186030C9419011F920F920FB60F92D8
:100C100011242F933F938F939F93AF93BF93809112
:100C2000150390911603A0911703B091180330910A
:100C3000100323E0230F2D3758F50196A11DB11D98
:100C4000209310038093150390931603A09317032A
:100C5000B09318038091110390911203A091130394
:100C6000B09114030196A11DB11D809311039093BF
:100C70001203A0931303B0931403BF91AF919F91FC
:100C80008F913F912F910F900FBE0F901F9018954D
:100C900026E8230F0296A11DB11DD2CF1F920F92FD
:100CA0000FB60F9211242F933F934F935F936F933F
:100CB0007F938F939F93AF93BF93EF93FF93809115
:100CC000B900887F803609F44AC0F0F5883209F40B
:100CD000A5C018F5803109F499C0B8F4882309F447
:100CE000F5C0883009F492C0FF91EF91BF91AF91A8
:100CF0009F918F917F916F915F914F913F912F9134
:100D00000F900FBE0F901F901895883109F486C080
:100D1000803251F78093630314C0803409F49BC080
:100D200040F48033B9F38833F9F68093630385EC9C
:100D3000AEC0803509F483C0883509F494C0883486
:100D400099F60E94CC05D0CF883909F48AC038F5CD
:100D5000883729F050F4883611F0803729F683E07F
:100D60008093850310920F0355C0883809F479C029
:100D7000803919F0803809F0B7CF80910F038032A5
:100D800008F06FC0E0910F0381E08E0F80930F0396
:100D90008091BB00F0E0E151FD4F80833BC0803B80
:100DA00039F0D0F4803A09F477C0883A09F09CCF42
:100DB00084E0809385031092EE021092ED02F0E041
:100DC000E0E009958091ED0281110FC081E08093F0
:100DD000ED021092CD0209C0803C09F4A8CF883CF6
:100DE00009F4A5CF883B09F07FCFE091EE0281E0C6
:100DF0008E0F8093EE02F0E0E353FD4F80818093ED
:100E0000BB009091EE028091ED0229C080916003B9
:100E10008093BB0085EC8093BC0066CF9091620309
:100E200080916103981758F5E091620381E08E0F7D
:100E300080936203F0E0E15CFC4F8081E9CFE091B8
:100E4000620381E08E0F809362038091BB00F0E02B
:100E5000E15CFC4F8083909162038091610398175D
:100E6000C8F285E8D8CFE091620381E08E0F8093CD
:100E700062038091BB00F0E0E15CFC4F80838091D5
:100E8000640381115ECF81E080935F0384EA8093E5
:100E9000BC001092850328CF85EC8093BC00109293
:100EA000850380910F03803230F4E0910F03F0E06E
:100EB000E151FD4F108260910F0370E08FEE92E0E0
:100EC000F0E0E0E0099510920F030ECF109263035B
:100ED00038CF08958FEF8AB92FEF89EF90E0215036
:100EE00080409040E1F700C0000082E00E946A0567
:100EF00088E20E946A058CE00E946A0586E00E94F2
:100F00006A0581E00E946A05EFE3FFE13197F1F79E
:100F100000C0000080E091E00E949F05FFEF23EDFC
:100F200080E3F15020408040E1F700C0000082E003
:100F300080938E030E94930581E191E00E949F05BA
:100F40009FEFE7E8F3E19150E040F040E1F700C0A7
:100F500000000E9493058091C0039091C103891BFA
:100F600087FD8C5F813059F08FE191E00E949F05F1
:100F700064E670E080E090E00E94E700ECCF0E9421
:100F800004048091C0039091C103891B87FD8C5F8D
:100F90008130F9F6C4E0D2E00CE311E00E943405A0
:100FA000882309F457C0E091C00324E0E29FF001D8
:100FB0001124E557FC4F85819681A781B0856E018C
:100FC000998388830E9434059091C00340E050E0EB
:100FD000BA01882351F084E0989FF0011124E5566E
:100FE000FC4F45815681678170857801F8015183F6
:100FF00040832091C103921B97FD9C5F992321F0B0
:101000002F5F23702093C1030E94930581E391E039
:101010000E949F052296F601808191810E949F0582
:1010200086E391E00E949F050E5F1F4FF7018081CC
:1010300091810E949F05FFEF20E782E0F150204060
:101040008040E1F700C0000092E0CC3CD90709F0F5
:10105000A5CF7FCF80E090E0DC01B1CF97FB072EDA
:1010600016F4009407D077FD09D00E94420807FCCF
:1010700005D03EF4909581959F4F089570956195A8
:101080007F4F0895AA1BBB1B51E107C0AA1FBB1FBE
:10109000A617B70710F0A61BB70B881F991F5A9504
:1010A000A9F780959095BC01CD010895F894FFCFE4
:1010B000496E696369616C697A616E646F2E2E2E68
:1010C00000496E696369616C697A61646F210045EA
:1010D0006E636F737465206F206465646F2E2E2EAF
:0C10E000007265643D002C2069723D0028
:00000001FF
